:02000002D0002C
:1040000000400D0088A60D00000006000E0005010E
:084010000401E80500000000B6
:04401800EC9C0D000F
:1040200009480A49884208B505D0094A824202D0A7
:10403000121A05F0FAFC0748074A0021121A05F087
:104040001AFD014808BD00BFE8E10320C4A50D002A
:1040500084E2032084E20320F0E7032070B504F03B
:1040600021FE074C074BE41AA40800251E46A54272
:1040700004D056F8253098470135F8E770BD00BFE9
:10408000C0A50D0088A50D0000F036B908B500F0F8
:10409000A3FBBDE8084004F0C7BD01F0F3BA01F08E
:1040A000F9BA01F0F7BA000008B5034A00210C2064
:1040B00001F024FAFEE700BFED510D000078B0FAE0
:1040C00080F0400970470123037070477047006A11
:1040D0000368DB681847000010B50A4A0A491088CF
:1040E0000B88088000211180084A0C24116800EB1D
:1040F000530393FBF4F3064C237051FA83F31360DC
:1041000010BD00BF54E30320F4E2032040E303208A
:1041100070E30320044A138801331380034A138891
:1041200001331380704700BF54E30320F4E20320FF
:1041300003681847012A02D0022A02D004E0016075
:1041400002E00B6800B1036000207047436913B1BF
:1041500083690C301847704713B5002104460846A0
:1041600000F0E4FF02A90023204641F8043D00F0DE
:10417000F5FF019C0CB1012323710021012000F007
:10418000D5FF2CB1236820469B68984700232371F4
:1041900002B010BD10B50446006808B101F07AFA0B
:1041A000204610BD012910B530D1194C2468A34216
:1041B00028D10378032B1AD00AD8012B17D0022B51
:1041C00020D1002004F0D1FA002004F0C9FB19E04E
:1041D000042B12D0323B022B14D80E4C236004F077
:1041E00005FE04222146022001F028F80AE0002002
:1041F00004F0BBFA01F0D6F904E0074B0720197070
:1042000004F0C3FD00F0FAFF044B186010BD00BFBE
:1042100008E20320A8E2032020E30320B8E2032001
:104220000A4B10B50446036003F028FA214603F058
:1042300015FC04F0ADFC04F09FFC2046044B40F854
:10424000043B03F011FB204610BD00BF349D0D0060
:104250001C9D0D0010B50446FFF7E2FF2046242107
:1042600004F01DFE204610BD10B58368044613B14E
:10427000032201469847204610BD07B580680023F9
:1042800038B18DE80A00022100F070FFB0FA80F02A
:10429000400903B05DF804FB38B5104B0360836838
:1042A0000446A3B16FF000410022FFF7E6FF0021B2
:1042B000A06800F083FF237903F0FF0513B100F03D
:1042C0001DFFF8E72946A06800F040FFA56004F153
:1042D0000C00FFF7C9FF204638BD00BF089D0D0048
:1042E00010B50446FFF7D8FF20461C2104F0D7FD87
:1042F000204610BD00000000D14A0023F0B5136035
:10430000D04A1360D04B00251D60D04B1D80D04B90
:104310001D80D04B1D70D04B99B018AC1D6001F0C2
:1043200021FD012101F064FD022601F01BFD642145
:1043300001F0A6FD04F05AFD44F8246D0422214644
:10434000012000F07BFF04F051FD0422C34901204D
:1043500000F06CFF04F04AFD0422214630460F9520
:1043600000F06CFF04F042FD0422BD49304600F02D
:104370005DFFBC4B1D6004F039FD01220DF1110100
:10438000282000F053FF04F031FD012204A9292068
:1043900000F04CFF04F02AFD01220DF10F012A204C
:1043A00000F044FF04F022FD0DF10E0101222B204C
:1043B00000F03CFF9DF810309DF811201B0403EB2A
:1043C00002639DF80F2003EB02239DF80E20134497
:1043D000A54A0120136004F0C8F92A462946642042
:1043E00004F0D3F93146042004F0BEFC012106207C
:1043F00004F0BAFC0121072004F0B6FC642001F0AF
:1044000071F90121062004F0C0FC4FF0FF33324661
:1044100096490095042002F097FD01F0A3FC944A10
:104420000146204602F020F9204601F079FD01F016
:1044300099FC904A0146204602F016F9204601F008
:104440006FFD01F08FFC8C4A0146204602F00CF90A
:10445000204601F065FD01F085FC884A01462046B2
:1044600002F002F9204601F05BFD01F07BFC844A7A
:104470000146204602F0F8F8204601F051FD01F017
:1044800071FC804A0146204602F0EEF8204601F019
:1044900047FD01F067FC7C4A0146204602F0E4F843
:1044A000204601F03DFD01F05DFC784A01462046C2
:1044B00002F0DAF8204601F033FD01F053FC744AB3
:1044C0000146204602F0D0F8204601F029FD2046A2
:1044D00001F01CFB6F4905A801F0B0F905A90AA875
:1044E00001F0ACF90AA801F0F3F907460AA847B9A8
:1044F00001F00CFA18AA334622F84E0D032100975A
:1045000005E001F008FA0095102302460721204635
:1045100001F0B5FA6049204601F012FB01F022FCDF
:10452000214600225D4C01F08EFC274601F01AFC6A
:1045300001F0C4FC594D064650BB132004F03EFC6C
:10454000C72825DC2660206864280ADC0022114682
:1045500004F01BF9142001F0C5F82368053323602B
:10456000F1E74B2001F0BEF864233B60206800288F
:104570000ADB0022114604F008F9142001F0B2F819
:104580002368053B2360F1E74B2001F0ABF8CDE752
:10459000122004F013FC4FF47A732D30584304F0CA
:1045A00037FF23A3D3E9002305F0C2F822A3D3E900
:1045B000002304F0DFFD3A4B3A4C384F002205F05F
:1045C000B7F805F09DF9002320602B6064262B6866
:1045D000632B13DC206800FB03F1C0F16400584337
:1045E000002291FBF6F190FBF6F004F0CEF81420D7
:1045F00001F078F83B6805333B60E8E700F0FEFD2A
:10460000294C2A4B0022186011462046FFF735FE40
:10461000A06840B100236FF000428DE80C001946FD
:104620001A4600F0A3FD19B0F0BD00BFAFF3008043
:10463000295C8FC2F578574000000000009AE040E6
:1046400060E3032058E30320B8E2032054E303208F
:10465000F4E2032070E3032040E303201CE3032083
:10466000A8E2032018E30320C0E2032015410D0057
:104670004CE3032068E3032078E30320ECE203200B
:1046800044E3032038E3032084E30320ACE2032067
:10469000A0E203208CE20320449D0D0034E30320BC
:1046A0000080514014E30320F8E2032074E3032068
:1046B00010B588B00246124904A804F029F9114B3C
:1046C000049A1B788DF800300F493C2302A802F0B1
:1046D00037FA039C7CB16368013B63605BB9236874
:1046E00020469B689847A368013BA3601BB92368D9
:1046F0002046DB68984704A804F085F808B010BD90
:10470000499D0D00E8E203204C9D0D0010B5124CB0
:10471000124B22681A6000F071FD114B246818607A
:1047200004F064FB210E282000F078FD04F05EFB0D
:10473000C4F30741292000F071FD04F057FBC4F3D6
:1047400007212A2000F06AFD04F050FBE1B22B2083
:10475000BDE8104000F062BDC0E2032080E303200A
:1047600018E3032070B5046843681426054606FB69
:104770000346A64204D0204604F045F81434F8E776
:10478000286800F087FF284670BDF0B50E4691B04E
:1047900000210446016041600BAD194606A817468A
:1047A00001F04AF91699284601F048F810AA3B781A
:1047B00002F82C3D189B0293179B0193204600950D
:1047C00006AB314601F09CFE204611B0F0BD134609
:1047D000042201F015BA00002DE9F04F2DED028BF7
:1047E000A94CDFF81C8385B000F008FD23688342E4
:1047F00080F00F810F2004F0E1FA04F009FE00229E
:10480000A24BA34DA34EDFF8FC9204F091FF0022CF
:10481000A14B04F063FE05F09BF82860132004F020
:10482000CDFA0746112004F0C9FA381A00F5805075
:1048300007EE900AF8EEE77A1320C6ED007A04F04E
:10484000BDFA0746112004F0B9FA381AC00007EE85
:10485000900AF8EEE77A1220C9ED007A04F0AEFA79
:1048600007EE900A8D4FF8EEE77A1220C7ED007A36
:1048700004F0A4FA8346132004F0A0FA82464FF411
:104880007A7000FB0BF004F0C3FD7DA3D3E9002395
:1048900004F04EFFCDE90001504604F0B9FD0022BE
:1048A0007F4BDFF864A2DFF864B204F041FF00221E
:1048B0007C4B04F013FE02460B46DDE9000104F0D8
:1048C0005BFC05F045F89FED787ADFED786A784B70
:1048D00099ED008A186007EE900A77EEC77A754B5B
:1048E000DFF810921B6887EEA67A3922B3FBF2F349
:1048F000CBF80030BDEEC77A8AED007A00F07EFC7E
:104900006D4ADFED6E6A13680092C01A07EE900AD6
:10491000F8EE677A87EEA67AD9ED007AE8EE077AA4
:10492000C9ED007A00F06AFCDAF80030009A642BD6
:10493000106063480BD80268642002FB03F1C31ABD
:10494000534391FBF0F1002293FBF0F00CE006DD05
:10495000642300220168CAF80030104604E00022F7
:104960000068CAF80020114603F00FFFD7ED007A67
:104970005448FDEEE77A04AF67ED017A002239462C
:10498000FFF725FFD6ED007A4F48FDEEE77A0022CB
:104990003946CDED037AFFF71AFFDAF800308DF8CB
:1049A0000C30012200233946484801F029F9D9ED9D
:1049B000007A4748FDEEE77A00223946CDED037ACA
:1049C000FFF705FFD5ED007A4248FDEEE77A0022B9
:1049D0003946CDED037AFFF7FAFE3F4B3F481B788F
:1049E000039300223946FFF7F2FEDBF800303C4823
:1049F000039300223946FFF7EAFED8F80030394821
:104A0000039300223946FFF7E2FE236803F596730D
:104A10002360354B1B78CBB1344C9FED357AD4ED08
:104A2000007A344D77EE877A95ED007AF4EEC77A06
:104A3000F1EE10FA0AD51E4BD3ED007AFDEEE77ABF
:104A400017EE900AFFF734FE2B6823602A4BD8F844
:104A500000201B689A4208D000F0D0FB274B1B684F
:104A6000C01A46F2A813984207D8052000F03AFE73
:104A700005B0BDEC028BBDE8F08FFFF747FEF4E711
:104A80000000000000C8534074E3032000003C40D5
:104A900064E3032024E3032000005940B4E2032030
:104AA00000405F400000694000D0044700007842A9
:104AB000BCE2032040E30320B8E2032000BA5B4AD3
:104AC00034E3032068E3032078E30320ECE20320CF
:104AD00044E3032038E3032070E3032084E303204E
:104AE000ACE20320A0E2032020E3032058E30320EC
:104AF0000000C84260E3032080E3032018E30320A2
:104B0000C0E203205CE3032014E3032088E20320D7
:104B10008842F8B506460C46154616D9904215D27D
:104B2000A2F114056C1AA1F114070444AF421CD081
:104B30002CB12946204603F056FE2B7C23742846D0
:104B400003F061FE143D143CF0E70ED0AC420CD0F3
:104B50002EB12146304603F046FE237C33742046B6
:104B600003F051FE14341436F0E7F8BD2DE9F0419E
:104B700000230360436083604E689E4204460F46F4
:104B800024DD4FF0140808FB06F000F07BFD05461D
:104B9000E0B194E8060008FB0212FFF7B9FF2068B5
:104BA00000F078FD2560A6603E687B6808FB03681E
:104BB000464509D02DB13146284603F08DFE337CA1
:104BC0002B7414361435F3E77B6863602046BDE828
:104BD000F08100002DE9F04FC74BC84DC84FDFF8FA
:104BE000A08397B04FF0010A002483F800A000F0E2
:104BF0002DFB4FF6FF736B812C60AC80AC712C8168
:104C0000022000F09BFC3A46BE49284604F042F9D7
:104C100006940794089403F0BBFF0CAE834606A9E4
:104C200009A8FFF7A3FFC14609A93046FFF79EFF79
:104C3000B54B49F8043B11AD31462846FFF796FFC6
:104C40002A465146484603F070F82846FFF78AFD89
:104C50003046FFF787FDAD4BC8F80030C8F820B0EC
:104C600009A8FFF77FFDAA4BC8F8003003F090FFBA
:104C70004FF4165103F07CFF02F000FD414602F0B4
:104C8000E7FF06A8FFF76EFD3A46A249DFF8F49267
:104C9000DFF8F4B2404604F0FDF89F4B484619682F
:104CA00000F0CAFE9D4BD3F800804FF0100A494631
:104CB00028468DF830A000F0C1FD4346DFF8CC82D5
:104CC000029432460194009595495846FFF75DFDE0
:104CD0003A464146584604F0DDF8924BDFF8B0B250
:104CE0001B688DF830A049462846059300F0A6FDC4
:104CF000059B02943246019400958B495846FFF774
:104D000044FD3A464146584604F0C4F8874BDFF864
:104D100084B21B688DF830A049462846059300F000
:104D20008DFD059B029432460194009580495846BA
:104D3000FFF72BFD3A464146584604F0ABF87D4B51
:104D4000DFF854B21B688DF830A049462846059319
:104D500000F074FD059B029432460194009576495B
:104D60005846FFF712FD3A464146584604F092F87D
:104D7000724BDFF828B21B688DF830A049462846F0
:104D8000059300F05BFD059B02943246019400956B
:104D90006B495846FFF7F9FC3A464146584604F03D
:104DA00079F8684BDFF8F8B11B688DF830A04946F8
:104DB0002846059300F042FD059B0294324601947B
:104DC000009561495846FFF7E0FC3A46414658468F
:104DD00004F060F85D4BDFF8CCB11B688DF830A0B3
:104DE00049462846059300F029FD059B029432466A
:104DF0000194009556495846FFF7C7FC3A4641468C
:104E0000584604F047F8534B8DF830A04946D3F884
:104E100000A0DFF89491284600F010FD534632467A
:104E20000294019400954C494846FFF7AEFC3A467F
:104E30004146484604F02EF8374BDFF87091D3F81E
:104E400000B0464BC9F80040D3F800A0C9F80440B0
:104E50005146304600F0F0FD5946284600F0ECFD82
:104E600004238DF824303E4B019309AA334648466B
:104E7000CDF808A000953B4901F042FB3A46414677
:104E8000484604F007F8384B1193DFF82481374B7C
:104E9000C8F8003095E8030008F10C0386E8030029
:104EA00093E8030085E8030096E8030083E8030025
:104EB0002F4BC8F81430D8F8183014932D4BC8F87D
:104EC000183088F80440C8F8084043462A4A01943C
:104ED0004FF47A71009408F10800139400F02EF951
:104EE0002846FFF7C1F93A462449404603F0D2FF6D
:104EF00017B0BDE8F08F00BFE8E2032028E30320ED
:104F000084E2032095410D001C9D0D00ECA20D00D4
:104F1000349D0D0021420D00F8E10320F4E103204F
:104F2000579D0D00F0E103205E9D0D0004E203207B
:104F3000669D0D00E8E10320719D0D0000E2032055
:104F4000789D0D00ECE10320809D0D000CE2032014
:104F5000879D0D00FCE103208F9D0D0008E20320DA
:104F6000A5410D00969D0D00D9400D00089D0D0036
:104F700035410D0031410D0059410D0099420D00A0
:104F8000C4E203208CE2032068E30320215F0D00CC
:104F900078E30320ECE2032044E3032038E303201A
:104FA00084E30320ACE20320A0E203204CE30320CF
:104FB000F8E2032008B500F049F900F047F9014B89
:104FC000186008BD8CE3032008B5024B1B689B6882
:104FD000019308BD7402030008B5024B1B681B69EE
:104FE000019308BD7402030008B5024B1B681B6DDA
:104FF000019308BD7402030008B5024B1B689B6D4A
:10500000019308BD7402030008B5024B1B681B6EB8
:10501000019308BD7402030008B5024B1B685B6F67
:10502000019308BD7402030008B5024B1B689B6F17
:10503000019308BD7402030008B5034B1B68D3F845
:105040009830019308BD00007402030008B5034BBB
:105050001B68D3F8A830019308BD00007402030058
:1050600008B5034B1B68D3F8B430019308BD0000AA
:105070007402030008B5034B1B68D3F8D8300193C2
:1050800008BD00007402030008B5034B1B68D3F889
:10509000DC30019308BD00007402030008B5034B27
:1050A0001B68D3F8EC30019308BD000074020300C4
:1050B00008B5034B1B68D3F8F030019308BD00001E
:1050C0007402030008B5034B1B68D3F80031019349
:1050D00008BD00007402030008B5034B1B68D3F839
:1050E0000431019308BD00007402030008B5024BAF
:1050F0001B689B68019308BD4802030008B5024B7A
:105100001B68DB68019308BD4802030008B5024B29
:105110001B681B69019308BD4802030008B5024BD8
:105120001B685B69019308BD4802030008B5024B88
:105130001B68DB69019308BD4802030008B5024BF8
:105140001B681B6A019308BD4802030008B5024BA7
:105150001B685B6A019308BD4802030008B5024B57
:105160001B689B6A019308BD4802030008B5024B07
:105170001B68DB6A019308BD4802030008B5024BB7
:105180001B685B6C019308BD4802030008B5024B25
:105190001B689B6C019308BD4802030008B5024BD5
:1051A0001B68DB6C019308BD4802030008B5024B85
:1051B0001B685B6D019308BD4802030008B5024BF4
:1051C0001B681B6F019308BD4802030008B5024B22
:1051D0001B68DB69019308BD3402030008B5024B6C
:1051E0001B685B68019308BD1802030008B5024BF9
:1051F0001B68DB68019308BD1802030008B5024B69
:105200001B685B69019308BD1802030008B5024BD7
:105210001B689B6A019308BD1802030008B5024B86
:105220001B681B6B019308BD1802030008B5024BF5
:105230001B685B6C019308BD1802030008B5024BA4
:105240001B689B6C019308BD1802030008B5024B54
:105250001B681B68019308BD2C02030008B5024BB4
:105260001B685B68019308BD2C02030008B5024B64
:105270001B689B68019308BD2C02030008B5024B14
:105280001B68DB68019308BD2C02030008B5024BC4
:105290001B681B69019308BD2C02030008B5024B73
:1052A0001B689B69019308BD2C02030008B5024BE3
:1052B0001B68DB69019308BD2C02030008B5024B93
:1052C0001B681B6B019308BD2C02030008B5024B41
:1052D0001B681B6A019308BD2802030008B5024B36
:1052E0001B685B6A019308BD2802030008B5024BE6
:1052F0001B689B6A019308BD2802030008B5024B96
:105300001B68DB6A019308BD2802030008B5024B45
:105310001B681B6B019308BD2802030008B5024BF4
:105320001B685B6B019308BD2802030008B5024BA4
:105330001B681B6C019308BD2802030008B5024BD3
:105340001B685B69019308BD6402030008B5024B4A
:105350001B689B68019308BD6802030008B5024BF7
:105360001B68DB68019308BD6802030008B5024BA7
:105370001B68DB69019308BD3002030008B5024BCE
:105380001B681B6A019308BD3002030008B5024B7D
:105390001B681B68019308BD3C02030008B5024B63
:1053A0001B689B68019308BD3C02030008B5024BD3
:1053B0001B68DB68019308BD3C02030008B5024B83
:1053C0001B681B69019308BD3C02030008B5024B32
:1053D0001B685B69019308BD3C02030008B5024BE2
:1053E0001B689B69019308BD3C02030008B5024B92
:1053F0001B68DB69019308BD3C02030008B5024B42
:105400001B681B6A019308BD3C02030008B5024BF0
:105410001B689B6A019308BD3C02030008B5024B60
:105420001B68DB6A019308BD3C02030008B5024B10
:105430001B681B68019308BD4C02030008B5024BB2
:105440001B685B68019308BD4C02030008B5024B62
:105450001B689B68019308BD4C02030008B5024B12
:105460001B681B69019308BD4C02030008B5024B81
:105470001B685B69019308BD4C02030008B5024B31
:105480001B689B69019308BD4C02030008B5024BE1
:105490001B68DB69019308BD4C02030008B5024B91
:1054A0001B681B6A019308BD4C02030008B5024B40
:1054B0001B685B68019308BD6002030008B5024BDE
:1054C0001B689B68019308BD6002030008B5024B8E
:1054D0001B68DB68019308BD6002030008B5024B3E
:1054E0001B689B69019308BD6002030008B5024B6D
:1054F0001B68DB69019308BD6002030008B5024B1D
:105500001B685B6B019308BD6002030008B5024B8A
:105510001B681B6D019308BD6002030008B5024BB8
:105520001B68DB6E019308BD6002030008B5024BE7
:105530001B681B6F019308BD6002030008B5024B96
:105540001B685B68019308BD2002030008B5024B8D
:105550001B685B69019308BD2002030008B5024B7C
:105560001B68DB6C019308BD2002030008B5024BE9
:105570001B685B6D019308BD2002030008B5034B57
:105580001B68D3F88830019308BD00002002030097
:1055900008B5034B1B68D3F89430019308BD000095
:1055A0002002030008B5024B1B68DB68019308BDAD
:1055B0004402030008B5024B1B685B69019308BDF8
:1055C0004402030008B5024B1B681B6A019308BD27
:1055D0004402030008B5024B1B68DB6B019308BD56
:1055E0004402030008B5024B1B685B68019308BDC9
:1055F0004002030008B5024B1B689B68019308BD7D
:105600004002030008B5024B1B68DB68019308BD2C
:105610004002030008B5024B1B681B69019308BDDB
:105620004002030008B5024B1B685B69019308BD8B
:105630004002030008B5024B1B689B69019308BD3B
:105640004002030008B5024B1B68DB69019308BDEB
:105650004002030008B5024B1B681B6A019308BD9A
:105660004002030008B5024B1B681B6B019308BD89
:105670004002030008B5024B1B685B6B019308BD39
:105680004002030008B5024B1B681B68019308BD6C
:105690001C02030008B5024B1B685B68019308BD40
:1056A0001C02030008B5024B1B689B68019308BDF0
:1056B0001C02030008B5024B1B685B6A019308BD1E
:1056C0001C02030008B5024B1B68DB6A019308BD8E
:1056D0001C02030008B5024B1B681B6B019308BD3D
:1056E0001C0203000021FFF731BF10B58368044698
:1056F0000BB903F0F0FBC3689847A3681BB1032202
:1057000021462046984720461021BDE8104003F06E
:10571000C6BB704700207047704700207047704735
:105720000020704710B51421044603F0B8FB204652
:1057300010BD10B51421044603F0B1FB204610BD86
:1057400010B51421044603F0AAFB204610BDFEF755
:10575000A6BCFEF7A4BCFEF7A2BC10B504460068C8
:1057600008B1FFF713FD204610BD000008B50A2060
:10577000024A0021FFF7C2FE08BD00BFED510D0037
:1057800010B5036804469B689847A368013BA36073
:105790002BB923682046DB68BDE81040184710BDD0
:1057A000A0F13003DAB2092A01D818467047A0F1F7
:1057B0006103052B01D857387047A0F14103052B31
:1057C00094BF37384FF0FF307047000010B500230A
:1057D0000370044B04461868FFF7E0FC01232370B4
:1057E000204610BD9CE3032010B5037804461BB18E
:1057F000024B1868FFF7DAFC204610BD9CE303203B
:1058000008B582798B799A4206D1062204F0FEF817
:10581000B0FA80F0400908BD002008BD10B5012392
:105820000361054B024603F1100153F8044B42F8A3
:10583000044B8B42F9D110BD18A10D0010B50B69B6
:10584000036101F11002034651F8044B43F8044B85
:105850009142F9D110BD10B50B460446B9B1012AE9
:1058600009D1034601F1100251F8040B43F8040B6F
:105870009142F9D108E0411E0F22985C01F8010F16
:10588000013AD2B2FF2AF8D10123236102E01022AB
:1058900004F0F1F8204610BD38B5054614461A4606
:1058A000FFF7D9FF2C73240A6C73284638BD00001B
:1058B00008B502690AB9808903E01022034904F09F
:1058C000A5F8003018BF012008BD00BF18A10D00C9
:1058D0000069704738B50C4614220021054604F0D3
:1058E000CAF823692BB9627B237B43EA02232B800E
:1058F0000AE001232B7404F110022B4654F8041B18
:1059000043F8041B9442F9D1284638BD427B007B02
:1059100040EA02207047704710B50B69036101F13E
:105920001002034651F8044B43F8044B9142F9D15D
:1059300010BD10B586B00446012201A8FFF78BFF09
:1059400001A92046FFF7E8FF06B010BD08B50269BF
:105950000B699A4206D1102204F058F8B0FA80F090
:10596000400908BD002008BD0123F7B50361314B94
:105970000E460546024603F1100153F8040B42F8A7
:10598000040B8B42F9D1002E51D02421304604F073
:10599000FDF8042810D0002710242421304604F0FC
:1059A000F5F8B84201D944BB41E02C440023A5429C
:1059B0003DD004F8013DFAE73078FFF7F1FE041E10
:1059C00018DB7078FFF7ECFE002813DB40EA0410C8
:1059D0008DF80400B078FFF7E3FE041E0ADBF078D0
:1059E000FFF7DEFE0028A1BF40EA04109DF8043056
:1059F00028736B7300232B6119E0F05DFFF7D0FE75
:105A0000030612D4013C000128552421304604F03D
:105A1000BDF80137874208D2F05DFFF7C1FE40B202
:105A20000028A2BF2B5D184328550137B5E703B006
:105A3000F0BD00BF18A10D0038B504460D46FFF7B4
:105A4000EDFE20462946FFF78FFF204638BDF0B512
:105A50008BB10024E51C8D420FD8661C055D875D67
:105A6000974205D12E44B14207D31C60681CF0BD9B
:105A700001352C44EEE71846F0BD0020F0BD2DE9BD
:105A8000F74304460E461D461746002A3AD00A46FA
:105A900001AB016AFFF7DBFF9DF82830226A03BBE8
:105AA000F8B1961C2E44361A1F2E2BD8DDF8048030
:105AB00008F10209C8EB0202121A00EB080105EB1B
:105AC000090092B22144204403F0BAFF6B1C04F891
:105AD00008302A46394604EB090003F0A6FF266287
:105AE00010E0901C2B181F2B0CD86B1CA3542244C5
:105AF00020623946567020442A4603F096FF226AF7
:105B00002A442262206A03B0BDE8F0831FB5044630
:105B1000034600F11F02002003F8010B93424FF0EF
:105B20000001F9D104AA062302F8013D01232162F4
:105B3000009120461946FFF7A2FF204604B010BD91
:105B400037B50C4605461421204604F01FF8002303
:105B500000932246034609212846FFF790FF03B031
:105B600030BD73B50A460E4601AB016A0446FFF725
:105B70006EFF054678B10198226A2918121A521B45
:105B80002144204403F051FF236A5D1B2562314606
:105B90002046FFF7E6FF02B070BD000038B50025D3
:105BA0004FF6FF73044643800E22294605700571A7
:105BB000063003F060FF04F11400FFF72FFE04F13C
:105BC0002800FFF72BFE044904F13C0002F062FEBE
:105BD000E5642565204638BDACA20D0010B583698B
:105BE000C26903EBC2029342184606D004682488B7
:105BF0008C4203F10803F6D110BD002010BD000057
:105C00002DE9F34180461F460E4669B362B3F42A7C
:105C1000056828BFF42214462A78A2B12B79980788
:105C200007D500232246A889FFF71AFA002802DACE
:105C300043E06FF07700D8F800502B79DA0618D5DA
:105C4000012F23D115E068884FF6FF7398420DD0DD
:105C50002B79590723D5012F21D0A98900922346FA
:105C60003246FFF711FA28E0154826E06FF0D10020
:105C700023E09A0621D5022F1FD0A88900232246AF
:105C8000314602B0BDE8F041FFF726BAA8890023EB
:105C90002246314602B0BDE8F041FFF713BA1B07B8
:105CA00001D5022F02D16FF0770006E00023A98909
:105CB000009332462346FFF7DDF902B0BDE8F081DC
:105CC000F2FEFFFF10B50A6852F8023F0360536806
:105CD000436010BD1FB502680B6812881B889A428A
:105CE0000C460CD101466846FFF7ECFF214602A89E
:105CF000FFF7E8FF02A96846FFF782FD00B9002020
:105D000004B010BD10B504463420FEF7C6F90146B4
:105D100068B10023036043608360C3600361436133
:105D20008361C361036243628362C3620363216070
:105D300019B90A4A0A20FFF7E1FB0020FFF744F9EE
:105D400020B1064A00210A20FFF7D8FB0022216873
:105D50000348FFF7ADF9204610BD00BFED510D001F
:105D6000AD610D0010B50A4C2368DB070ED4204648
:105D7000FEF7A4F950B10748FFF7C4FF2046FEF72D
:105D8000A2F9054A0549034803F084F8014810BD0B
:105D900094E3032090E3032084E20320955F0D0049
:105DA00070B50368093B012B8AB004460E4619D82A
:105DB000FFF7D8FFA1880068FFF710FF024658B927
:105DC00020230293084B0390009302AA034607493D
:105DD0003220FFF79BFB05E0F56C1DB1336DE168E8
:105DE0002069A8470AB070BDC29F0D00789F0D00C2
:105DF00008460021FFF7F0B8084609B90A4601E055
:105E0000096A0022FFF7F0B810B50C4611B90A462E
:105E1000084606E001212046FFF7A3FE216A002282
:105E20002046BDE81040FFF7E7B813B501A8FFF71B
:105E3000CDFC0020FFF7E8F8044601A8FFF7D4FCEA
:105E4000204602B010BD73B505460C4601A81646A3
:105E5000FFF7BCFC21462846FFF7CEFF002808DBF1
:105E600031462846FFF7D0FF002802DB2846FFF71F
:105E7000DCFF044601A8FFF7B7FC204602B070BD66
:105E800030B585B0002468460D46FFF79FFC0C2313
:105E9000214601A801940294ADF806300394FFF75F
:105EA000C3F8214601A8ADF80C50FFF7B5F8044639
:105EB0006846FFF799FC204605B030BD0368D869F5
:105EC0000028D4BF0020012070470B68036013B185
:105ED0005A6801325A60704710B551F8043B0446C5
:105EE00040F8043BFFF7F1FF23680BB9FFF73EFCD6
:105EF000204610BD10B551F8043B044640F8043B61
:105F0000FFF7E3FF204610BD10B50446006828B136
:105F10004368013B43600BB9FFF732FC204610BDDC
:105F200010B504460430FFF7EFFF204610BD70B5F2
:105F300004684368054604EBC306A64204D0201D4E
:105F4000FFF7E2FF0834F8E72868FFF7A3FB2846CD
:105F500070BD70B504684368054604EBC306A642ED
:105F600004D0201DFFF7D0FF0834F8E72868FFF7BA
:105F700091FB284670BD10B5046904F11800FFF7C5
:105F8000E8FF04F10C00FFF7D2FF2046BDE8104007
:105F9000FEF785B8F8B504680746C4B1A569E3699A
:105FA00005EBC306AE4204D0281DFFF7ADFF083550
:105FB000F8E7A069FFF76EFB04F10C00FFF7C9FFDB
:105FC0002046FFF7B4FF3421204602F068FF384630
:105FD000F8BD000073B50025056045600646242025
:105FE000FEF75BF8044678B103464FF6FF7223F8DC
:105FF000022BC0F802505D608572C572C5600561F4
:1060000045618561C5610562002314200193FEF797
:1060100044F8034628B1012242608260084A0260C7
:10602000046102A8726840F8042D73603460FFF7C1
:106030006BFF33680BB9FFF799FB304602B070BDB8
:10604000549F0D0038B50C6803689C4205460CD07F
:1060500014B1636801336360286828B14368013B69
:1060600043600BB9FFF78CFB2C60284638BD884293
:1060700070B515461AD9904219D2A1F10806511AE5
:106080000439151F44182B1F9E4225D0042C07D01D
:1060900055F8043C44F8043C29462046FFF715FF18
:1060A0002846FFF731FF083D083CECE714D00C1DF3
:1060B000061D231F9D420FD0042E07D054F8043C28
:1060C00046F8043C21463046FFF7FFFE2046FFF726
:1060D0001BFF08340836ECE770BD2DE9F041046879
:1060E00043680546884604EBC307A74218D04146DB
:1060F0002046FFF7EFFD064608B90834F5E78CB1F6
:10610000201DFFF701FF2B686A6804F1080103EB0B
:10611000C2022046FFF7ABFF6B68013B6B6002E0F9
:10612000002600E026463046BDE8F081F7B504467B
:1061300051F8043B4768009301A8FFF7C6FE666864
:10614000A3689E4214DB0136002E0BDDF000FFF742
:1061500099FA054618B394E8060001EBC202FFF76E
:1061600086FF00E000252068FFF794FA2560A6600E
:106170002668626806EBC70506EBC202294605F1F0
:106180000800FFF774FF35B1009B46F8373001A9CE
:10619000281DFFF79AFE636801336360012501A89B
:1061A000FFF7B2FE284603B0F0BD00002DE9F04134
:1061B00004468EB003A80D46FFF708FB2368032BA7
:1061C00002D0042B42D087E004A8FFF703FF049B12
:1061D00022891A806268049952F8083FC1F8023097
:1061E0005368C1F8063007A8049B069305A9FFF77A
:1061F0006CFE06A905F11800FFF798FF044607A8F2
:10620000FFF782FE2023069374B9364B009306AA4B
:106210002346354907943220FFF778F9049B21463D
:106220001888FEF709FF0DE0304A0092002306AA05
:106230002D4907930120FFF769F96B6A13B1E96AE9
:1062400004A8984705A8FFF75FFE45E02189284686
:10625000FFF7C4FC074600283ED00468A369E16943
:106260004FF6FF72228003EBC101994203D053F82D
:10627000080B4280F9E7E668236906EBC308B045DE
:1062800004D0301DFFF740FE0836F8E700232361F5
:10629000A669E36906EBC308B04504D0301DFFF7DB
:1062A00033FE0836F8E70023E361A372E372AB6ABA
:1062B00013B1296B3846984720230D4A0693009264
:1062C000002309490793012006AAFFF71FF9394661
:1062D00005F11800FFF701FF03A8FFF785FA0EB0DC
:1062E000BDE8F081DA9F0D00789F0D0000A00D0041
:1062F0001DA00D008842F8B506460C46154614D977
:10630000904213D2A2F108056C1AA1F108070444C7
:10631000AF4218D01CB129462046FFF7EBFD281DDF
:10632000FFF7F2FD083D083CF2E70CD0AC420AD082
:106330001EB121463046FFF7DDFD201DFFF7E4FDCD
:1063400008340836F2E7F8BD70B50E1E05460BDDC1
:10635000F000FFF797F9044670B195E8060001EBED
:10636000C202FFF7C7FF00E000242868FFF792F998
:106370002C60AE60012070BD70BD73B504464568E9
:106380006846FFF7B7FD6168A368994205DB0131F4
:106390002046FFF7D9FF064698B12368626803EBF1
:1063A000C50503EBC202294605F10800FFF7A2FF6D
:1063B0001DB169462846FFF79DFD636801336360A0
:1063C000012601A8FFF7A0FD304602B070BD88424B
:1063D000F8B506460C46154614D9904213D2A2F1E0
:1063E00008056C1AA1F108070444AF4218D01CB18B
:1063F00029462046FFF770FD281DFFF785FD083D63
:10640000083CF2E70CD0AC420AD01EB1214630461F
:10641000FFF762FD201DFFF777FD08340836F2E72D
:10642000F8BD70B50E1E05460BDDF000FFF72AF92A
:10643000044670B195E8060001EBC202FFF7C7FF02
:1064400000E000242868FFF725F92C60AE600120E9
:1064500070BD70BD73B5044645686846FFF73CFDE6
:106460006168A368994205DB01312046FFF7D9FF37
:10647000064698B12368626803EBC50503EBC202C8
:10648000294605F10800FFF7A2FF1DB1694628461D
:10649000FFF722FD636801336360012601A8FFF75F
:1064A00033FD304602B070BD10B50446406808B1F7
:1064B000FDF7F5FD204610BD07B503690C308DE8EA
:1064C000090003F13C0002F09EF96846FFF7ECFF7B
:1064D00003B05DF804FB000038B5002304460360F8
:1064E00014200D46FDF7D9FD28B1012343608360D8
:1064F000024B036005612060204638BD1C9F0D00E3
:106500002DE9F04188B005461E46542000230F4671
:10651000904604930593FDF7C0FDCDF818D00446CE
:106520000790C0B198F80080FFF738FB394604F1B6
:106530003C0084F8048002F0DAF90F9BE3643146F2
:10654000109B236504F11400FFF7E6F90E9904F19E
:106550002800FFF7E1F92146002601AB02AA03A8B3
:106560000796FFF7B9FF039B059A039203A80593CB
:106570000494FFF7C9FC06A8FFF796FF049B29685F
:10658000059A2B6008A86B6806916A6040F8043D84
:1065900005960496FFF7B8FC05A8FFF7B5FC296837
:1065A00019B9034A0A20FEF7A9FF08B0BDE8F08137
:1065B000ED510D0010B50446406808B1FDF76FFDC0
:1065C000204610BD07B503690C308DE80900684608
:1065D000FFF7F0FF03B05DF804FB000038B50023BF
:1065E0000446036014200D46FDF757FD28B1012332
:1065F00043608360024B036005612060204638BD24
:10660000389F0D00F0B5002687B00660466004464E
:1066100018200F46FDF741FDCDF810D00546059036
:1066200038B1FFF7FBF839462846AE82EE82FFF715
:1066300073F900232946059302AA01AB03A8FFF7CB
:10664000CDFF039B62682560636003A80392FFF798
:106650005BFC04A8FFF7AEFF23680BB9FFF786F8D1
:10666000204607B0F0BD00002DE9F04F1746A1B05D
:1066700080460AA80E46FFF7A9F83C682379002B4C
:1066800000F0DE803368DD681B6905EBC30303930C
:1066900004F1140A04F1280B039BAB4223D0D5F874
:1066A0000090504609F11401FFF750F9002800F05E
:1066B000CC8009F128015846FFF748F9002800F07E
:1066C000C480236823F47F41D9F8003023F47F434A
:1066D000994240F0BA802023604A1593002300922B
:1066E000169315AAA8E004F128094846FFF7E0F838
:1066F00018B95B494846FFF71CF933681D685B68A9
:1067000005EBC30A5545494605D02868FFF71EF931
:1067100058BB0835F6E70BA8FFF774FF494615A8E4
:10672000FFF7D8F80B9A0023143215A90120FEF7C1
:106730008DFC002878D135680BA90DA8FFF7DAFB8E
:1067400028460DA9FFF719FE05460EA8FFF7DCFB4A
:10675000002D69D03268556805F100531568013B7A
:106760000CA805EBC305FFF7CFFB04F1140948465D
:10677000FFF79EF868B93B4B39491A88013292B24B
:106780001A8015A80123FFF787F815A94846FFF7D7
:10679000C3F84FF02C0A5246002115A803F06BF9FC
:1067A0000123494604A8ADF85430ADF856A0FFF7D0
:1067B00091F804AB18AA0DF1200C18685968964698
:1067C000AEE80300083363457246F6D11868CEF888
:1067D000000023798DF858302B689B8AADF874300F
:1067E000E36B17930022204B1E93A11D15A81F9445
:1067F000FEF754FC20BB01232370346839460C3467
:106800000DA8FFF769FB20460DA9FFF723FE0446FC
:106810000EA8FFF779FB9CB920230D93134B00932F
:106820000E9423460DAA07E039464046FFF754FB75
:106830000CA8FFF769FB0AE00D493220FEF766FE5F
:1068400039464046FFF748FB01E0083524E70AA82F
:10685000FEF7CAFF404621B0BDE8F08FEDA00D0065
:10686000689F0D0098E30320A15D0D00C6A00D00F8
:10687000789F0D0010B5064C002320462360FEF7DC
:106880007DFC2046034A0449BDE8104002F002BBEB
:106890009CE3032084E203205B570D007047002037
:1068A000704710B51021044602F0F9FA204610BDD9
:1068B00008B508B1FFF7F5FF08BD0022026010B56A
:1068C0004FF69C728280B1F9044084808A8002680D
:1068D0000C6804600A6010BD10B504460068FEF73D
:1068E000D9FE204610BD38B5C468F4B12378022B18
:1068F00003D104F10C00FFF7EFFF656835B12846BE
:10690000FDF7B2FC1021284602F0C9FAA56835B19E
:106910002846FDF7A9FC1021284602F0C0FA2046BF
:106920001421BDE8384002F0BABA38BD13B50446A8
:1069300091E8050000234B600B602060626001A8B5
:1069400001930093FFF7E0FA204602B010BDF7B5BF
:106950000C4602AD54F8043B45F8083D06460F4688
:1069600001A82146FFF7B1FA29463046FFF7DEFFBE
:1069700001A8FFF7C9FA2046FFF7C6FA38460821F2
:1069800002F08DFA304603B0F0BD13B50B46044655
:1069900003C88DE8030093E8030084E803009DE842
:1069A000030083E8030002B010BD000038B50023E7
:1069B0000446036010200D46FDF76FFB28B101234C
:1069C00043608360024B0360C5602060204638BD91
:1069D00030A10D00826810B50AB902F07CFAC368D4
:1069E000BDE81040184708B5006800F11001FFF736
:1069F000F1FF08BD826810B50AB902F06CFAC368ED
:106A0000BDE81040184708B5006800F11001FFF715
:106A1000F1FF08BD38B5002383608B6804460D463E
:106A20002BB102229847EB68E360AB68A360204675
:106A300038BD0000F0B589B004686846FFF73DFF37
:106A400000238DF808304FF00202D4E84F3F002BAE
:106A500003D1C4E8412F0029F7D102D08DF80830C6
:106A600063E014F10C0503D069462846FFF725FFC3
:106A7000BFF35F8F01236370002004F10803BFF3AD
:106A80005F8F53E8006F43E80002002AF9D1BFF39B
:106A90005F8F002E49D0FEF761FD20B129463046B8
:106AA000FFF798FF3AE0314602A8FFF7B3FFE0682E
:106AB000B4F9105008B103F031F806901020ADF889
:106AC0001C50FDF7EAFA0546E8B100278760182058
:106AD000FDF7E3FA044688B10146876002A8FFF794
:106AE00054FF049BA268A360059B049206A9E26878
:106AF000E36004F110000592FFF7DFFE0D4BEB6041
:106B00000D4B2C60AB6006A8FFF7E6FE02A8FDF770
:106B1000ABFB002229460948FEF728FD3046FDF769
:106B2000A3FB1021304602F0BAF96846FFF7D4FE05
:106B300009B0F0BDE7690D005D6C0D00EB560D006E
:106B40002DE9F04F8BB006460F46904699469DF8CA
:106B500050A0FEF72FFD07AD834630BB4FF62E73D6
:106B6000059005A92846ADF81830FFF7A6FE1420B9
:106B7000FDF793FA044658B10223037001234370D2
:106B8000C0F804B0C0F808B029460C30FFF795FEF5
:106B90003046214640F8044BFFF708FF2846FFF730
:106BA0009BFE05A8FFF798FE52E000240C2314205A
:106BB0006C60AC600793FDF770FA014618B1047081
:106BC00044704460846004A80391FFF7EFFE224BF9
:106BD00008930820FDF761FA044628B1039B40F8AA
:106BE000043B04A9FFF771F900955FFA8AF34A465E
:106BF000414638460994FEF7E5FC20B9039B5B78D3
:106C000003F0FF0283B1039B059304A906A8FFF7D5
:106C10005CF905A93046FFF789FE06A8FFF774F96D
:106C200004A8FFF771F913E04FF69C7305A903A8B8
:106C30000592ADF81830FFF7FDFE05A8FFF74CFEF2
:106C400005A80999FFF783FE06A8FFF75DF9DAE7C3
:106C500030460BB0BDE8F08FCD6D0D00022AF8B5BF
:106C6000044606D0032A17D0012A22D10B680360FC
:106C70001FE018200E68FDF710FA054650B13146A6
:106C8000FFF7C8FE3069B6F9147008B102F046FF8C
:106C90002861AF8225600CE0046854B104F1100053
:106CA000FFF71AFE2046FDF7DFFA1821204602F012
:106CB000F6F80020F8BD38B5002383608B680446E1
:106CC0000D462BB102229847EB68E360AB68A360E6
:106CD000204638BD022A70B5044606D0032A11D0DA
:106CE000012A18D10B68036015E014200E68FDF727
:106CF000D4F9054620B13146FFF7DDFF337C2B7414
:106D0000256008E0046834B12046FDF7ADFA14218F
:106D1000204602F0C4F8002070BD0000F0B500234A
:106D200087B00C46BFF35F8F50E8006F40E8003239
:106D3000002AF9D1BFF35F8F002E3FD01846FEF72F
:106D40000DFC074620B121463046FFF753FE2EE0EA
:106D5000314601A8FFF7AFFF23788DF814301020DB
:106D6000FDF79BF90546D0B187601420FDF795F932
:106D7000044678B18760014601A8FFF706FE039B31
:106D8000A268A360049B0392E268E3609DF814305C
:106D9000049223740A4BEB600A4B2C60AB6001A891
:106DA000FDF762FA002229460748FEF7DFFB30466E
:106DB000FDF75AFA1021304602F071F807B0F0BD25
:106DC000076A0D00D56C0D00EB560D0030B585B08F
:106DD00004460D4668461146FFF7B9FD7CB124B262
:106DE00028460DB102F09AFE029002A96846ADF85D
:106DF0000C40FFF71FFE02A8FFF76EFD1DE0009894
:106E00008DF808404FF00102D0E84F3FA34203D174
:106E1000C0E8412F0029F7D102D08DF808300CE0EE
:106E200010F10C014FF0010318BF0373BFF35F8F24
:106E3000043000F8033CFFF771FF01A8FFF764F886
:106E400005B030BD002211464068FEF703BC0022A9
:106E500011464068FEF70EBC00224068FEF702BCF7
:106E6000002281F001014068FEF7ECBB00231A46C6
:106E700019464068FEF7DEBB00231A4619464068F3
:106E8000FEF7D0BB002211464068FEF7C3BB0022CC
:106E900011464068FEF7AEBB002202214068FEF7B3
:106EA000B1BB00231A464068FEF79CBB024B03228D
:106EB0005A60024A1A607047A0E303204CA10D00FB
:106EC0007047F8B5064615460C468F18BC4206D0EA
:106ED000336814F8011B9B6830469847F6E728464C
:106EE000F8BD0022007CFEF7F1B90021007CFEF71E
:106EF000F5B90021007CFEF7F9B90021007CFEF70E
:106F0000FDB90021007CFEF701BA10B5142104463A
:106F100001F0C5FF204610BD10B504460023636094
:106F20004FF47A73A360044B217408462360114622
:106F3000FEF7FCF9204610BD80A10D000021007C69
:106F4000FEF7ECB900470000F0B585B01C460E46D0
:106F500017460546FEF7AAF9002084424FF00403C5
:106F600003908DF80C30A5BF9DF828308DF80E30B9
:106F7000034603AB009332463B460649A8BF8DF853
:106F80000D402846FEF78AF9B0FA80F0400905B0B6
:106F9000F0BD00BF456F0D00704710B518210446C5
:106FA00001F07DFF204610BDF0B5037D062B8DB0AE
:106FB0000E4600F104074FF0000402D000F108056E
:106FC00018E00CAD394605F8304D2F232A460A202B
:106FD000FEF7B4F9284602F0BCFD33680246DB68D0
:106FE0002946304698470FE024B12E21304601F063
:106FF0004DFB044415F8011D0A22304601F055FBF3
:10700000BD420444F0D120460DB0F0BD10B5054B93
:107010000446112240F8043B002102F02CFD2046DA
:1070200010BD00BFA8A10D000346074A10B543F8E4
:10703000042B01F1100251F8044B43F8044B914228
:10704000F9D10A781A7010BDA8A10D0010B59DF8ED
:10705000084044EA032343EA024242EA016104236E
:107060004160037510BD37B50D788B784A78C978C3
:1070700000912946FFF7EAFF03B030BD00F110028E
:10708000012312F8101C0129104604D152F8041CE7
:1070900003EB410304E0022904BF52F8041C5B180F
:1070A000013B02F11002ECD170470EB42DE9F04122
:1070B00087B000AF07F13404054654F8046B7C60D8
:1070C00023463246102107F10800FEF7F3FA0F2895
:1070D00016D900F1080323F00703E846ADEB030DD2
:1070E0003246411C234668467C60FEF7E3FA021EE6
:1070F00004DD2B6869469B6828469847C54607E02B
:1071000030B12B6802469B6807F108012846984772
:107110001C37BD46BDE8F04103B0704713B502AB64
:10712000026803F8011D946819460122A04702B0C5
:1071300010BD8368FBB11A78032A1AD8DFE802F081
:107140000417021D0520704702685B685268D05C16
:107150002D2814D0A0F13003092B10D9742810D099
:1071600066280ED0A0F16E035842584170470620A1
:10717000704700207047184670470420704703206E
:1071800070470220704710B50446FFF7D2FF02286F
:107190000DD016D3042814D82268A36850685B6801
:1071A0000A2200211844BDE8104002F095BD226873
:1071B000A36852685B68D05CA0F1740358425841E0
:1071C00010BD002010BD10B5436904465BB1806856
:1071D000E060013B1030A060206163612BB1FFF7DC
:1071E0004DFFA06001E0184610BD012010BD10B594
:1071F0007D210446FFF792FF01232371204610BD35
:1072000008B50379012B02D0022B02D008BD2C2136
:1072100000E03A21FFF782FF08BD10B50446FFF7F2
:10722000EFFF20467B21FFF779FF002323712046E3
:1072300010BD000038B504460D46FFF7E1FF236896
:107240000449DB6820462A469847012323712046DB
:1072500038BD00BF499D0D0038B504460D46FFF707
:10726000CFFF23680449DB6820462A46984701235C
:107270002371204638BD00BFC3A10D00F8B50D46EF
:107280001746222104462F44FFF748FF2A46294685
:10729000BA4238D0164616F8015B222D03D05C2D79
:1072A00001D01F2D2DD82368521A9B68204698477D
:1072B0005C212046FFF732FF0C2D19D007D8092D8D
:1072C0000FD00A2D12D0082D14D162210AE0222DF0
:1072D00005D05C2D03D00D2D0CD1722102E0294682
:1072E00000E074212046FFF719FF09E06E21F9E75D
:1072F0006621F7E723680A49DB682A462046984753
:1073000031463246C4E7914204D02368521A9D6840
:107310002046A84722212046FFF700FFF8BD00BF06
:10732000D4A10D0070B504460D461646FFF768FF60
:10733000204632462946FFF7A1FF0223237120464B
:1073400070BD70B504460D461646FFF759FF20463E
:1073500032462946FFF792FF01232371204670BD74
:1073600010B500230446036043601048A060E3604A
:10737000D1B10B78032B06D0B3B9136858684B68AA
:10738000C35C6E2B08D0136858684B680344A36035
:107390008B6849685B1AE3601146204651F8043B4C
:1073A00040F8043BFEF74EFE204610BDACA20D0097
:1073B000002310B50446036043608360C36003612B
:1073C000436171B10B78012B0BD101F11003836084
:1073D000CB684361114651F8043B40F8043BFEF78B
:1073E00031FE204610BD002310B504460360436003
:1073F000816031B1114651F8043B40F8043BFEF77F
:1074000021FE204610BD80680368DB68184770477E
:1074100019B10B6808465B681847704719B10B68CB
:1074200008465B681847704770477047704738B523
:1074300004460D4600682E2102F05CFB2368C31A47
:107440002B6023B1037803B1013023682060184614
:1074500038BD10B50C21044601F021FD204610BDB9
:1074600010B50421044601F01AFD204610BD10B5E8
:107470000421044601F013FD204610BD38B50C462A
:10748000054601F085FB84420DD001F0F5FA8442F7
:1074900005D101F0F1FABDE8384001F0E6BA214625
:1074A0002846FFF7BBFF38BD08B502F02DFBB0FA48
:1074B00080F0400908BD38B5054608460C4602F084
:1074C00048FB214602462846BDE83840FFF739BF51
:1074D0000068FDF763BE70B5044608460D4602F02D
:1074E00038FB2368024629462046DB68BDE8704029
:1074F000184713B502AB026803F8011DD46819469A
:107500000122A04702B010BD2DE9F04F4568076881
:1075100085B09146142255430193AB10194D029248
:107520005D438B463C460123002D039323DD029BE4
:107530006E1003FB06F004EB00084A46B8F804A0FE
:107540002058D14528BF5246594602F00AFB039BFA
:1075500048B9D14503D1019A13703546E4E78CBF91
:107560000120002000E0C00F0028F6D0AE1B08F17B
:107570001404013EF1E7E41B0248A410604305B087
:10758000BDE8F08FCDCCCCCCF0B585B003690191CE
:10759000067E13B309B304AF002347F8043D00F19E
:1075A0000C041D46394601A8FFF741FF0146A0B172
:1075B00004AB039A03F8055D2046FFF7A5FF9DF88D
:1075C0000B3053B12368142404FB0034083434F91D
:1075D000023C002BA8BFDEB2E4E7304605B0F0BDA8
:1075E00010B5094C2368DB070BD42046FCF766FD79
:1075F00038B12046FCF767FD044A0549054801F00B
:1076000049FC044810BD00BFA8E3032084E2032026
:107610002B740D0014E2032010B5094C2368DB071E
:107620000BD42046FCF74AFD38B12046FCF74BFD51
:10763000044A0549054801F02DFC044810BD00BF6F
:10764000D8E3032084E2032029740D0010E2032014
:1076500038B50025044605604560856005614561D3
:10766000856140F8245FFDF789FDFFF7B9FFE06110
:10767000FFF7D2FF25732062204638BD10B50A4CB3
:107680002368DB070ED42046FCF718FD50B10748ED
:10769000FFF7DEFF2046FCF716FD054A05490348C3
:1076A00001F0F8FB014810BDACE30320B0E3032078
:1076B00084E20320E77A0D000023024A02490348CE
:1076C000FDF734BFC9790D0059790D00E1780D003F
:1076D00000231A4619461846FDF728BF73B502ACB9
:1076E0008E6851F8043B44F8083D054601A8FEF7B2
:1076F000ECFB224631462846FFF75AFE01A8FEF76A
:1077000003FC284602B070BD73B502AC0E6951F897
:10771000043B44F8083D054601A8FEF7D6FB224687
:1077200031462846FFF75FFE01A8FEF7EDFB28462D
:1077300002B070BD73B502ACCE6851F8043B44F89A
:10774000083D054601A8FEF7C0FB22463146284603
:10775000FFF706FE01A8FEF7D7FB284602B070BD72
:1077600030B58BB00D46014604A8FFF7B7FF04A85B
:10777000FFF729FDE8B104A96846FFF7DBFF0F49D1
:107780000298FFF791FE044610B12C1C18BF01248B
:1077900001A8FEF7B9FB002CE9D004A96846FFF761
:1077A000B3FF6846FFF7EFFC286001A8FEF7ACFBCB
:1077B000DDE705A8FEF7A8FB0BB030BD0CA20D005D
:1077C00037B50C4620461349154602F09DF940B9DD
:1077D00001F0DEF94FF4165101F0CAF901F0D8F9C1
:1077E00015E00D49204602F08FF978B902A94FF44F
:1077F000165341F8043D2846FFF7B2FF01F03CF96B
:10780000019901F02FF901F037F900E0002003B0F1
:1078100030BD00BF11A20D0018A20D0070B50468A4
:1078200043681426054606FB0346A64205D004F12C
:107830000800FFF7F3FF1434F7E72868FDF72AFF85
:10784000284670BD70B504684368054604EB03160E
:10785000A64204D0204600F0D6FF1034F8E728688E
:10786000FDF718FF284670BD10B504460C30FFF731
:10787000D5FF2046FFF7E6FF204610BD10B5044BAC
:10788000044640F8043BFFF7EFFF204610BD00BF61
:107890001C9D0D0010B50446FFF7F0FF2046242183
:1078A00001F0FDFA204610BD10B5034B03600446FD
:1078B000FFF7E4FF204610BDFCA10D0010B5044603
:1078C000FFF7F2FF2046242101F0E9FA204610BD1F
:1078D00010B5036804461868FDF768FC204610BD23
:1078E0002DE9F04F9B461B4B5B68C3F3080385B043
:1078F00082460E46904653BBFFF7C0FE0446243036
:107900000390FFF7E5FD237BF3B90123237325687B
:107910006368F6B205EB83094D4513D055F8047B37
:107920004146381DFFF730FE8642F5D33B68CDF85F
:1079300000B09B689E4638464346324651467746DD
:10794000B847E9E70023237303A8FFF7C1FF05B099
:10795000BDE8F08F00ED00E02DE9F74F9946194B97
:107960005B68C3F3080307468846164633BBFFF738
:1079700085FE044624300190FFF7AAFD237BD3B98E
:1079800001232373256863685FFA86FB05EB830A8E
:1079900055450ED055F8046B4946301DFFF7F4FDF0
:1079A0008345F5D333684246DB683946304698470D
:1079B000EEE70023237301A8FFF78AFF03B0BDE8B9
:1079C000F08F00BF00ED00E02DE9F341154B5B683F
:1079D000C3F3080304468846FBB9FFF74FFE06468B
:1079E00024300190FFF774FD96E8A000462605EBD1
:1079F0008707AF4207D101A8FFF76AFFB442B4BFBF
:107A0000002001200AE055F8040B41460430FFF73E
:107A1000BBFD8642A8BF0646EBE7002002B0BDE8EA
:107A2000F08100BF00ED00E070B5036842680446D5
:107A300003EB82029A4218460ED006680D68AE42E9
:107A400003F10403F6D1011D521A01F0F9FF636836
:107A5000013B6360012070BD002070BD1FB504466E
:107A6000243001910390FFF733FD01A92046FFF771
:107A7000DBFF20B903A8FFF72BFF04B010BD63683C
:107A8000002BF7D1FFF724FEF4E770B505694369D1
:107A90001826044606FB0356AE4215D005F1100128
:107AA0002046FFF7C1FF63680BB9FFF711FEE069DD
:107AB00029690368DB689847696919B1206A036816
:107AC000DB6898471835E7E725696369182606FBE0
:107AD0000356B54204D0284600F095FE1835F8E765
:107AE0000023636170BD73B5044602ADFFF7F0FD7E
:107AF00004F1240045F8040DFFF7EAFC2046FFF7E7
:107B0000C4FF2846FFF7E4FE606A08B1FDF73EFBBC
:107B100025696369182606FB0356B54204D028463A
:107B200000F071FE1835F8E72069FDF7B3FD206815
:107B3000FDF7B0FD204602B070BD03680A68026020
:107B40000B6043684A6842604B6083688A68826061
:107B50008B60704710B50023044603604360836068
:107B6000FFF7EBFF204610BD8842F8B504461646E5
:107B700025D9904224D2551A143D2C44A1F1140762
:107B8000A2F10C050026A5F108039F4237D084B16D
:107B900055F8083C236035F8043CA38035F9023CD5
:107BA000E380A660E6602661294604F10800FFF73D
:107BB000C4FF2846FFF732FE143C143DE3E71ED015
:107BC00001F108050027A5F108039E4217D084B1F2
:107BD00055F8083C236035F8043CA38035F9023C95
:107BE000E380A760E7602761294604F10800FFF7FA
:107BF000A4FF2846FFF712FE14341435E3E7F8BD5E
:107C0000F8B5456883689D4204460E4617460EDB6C
:107C10000135002D05DDA9000068FDF743FD20B901
:107C2000F8BD0068FDF736FD00202060A5602568DE
:107C3000626805EB860105EB8202521A081D01F00D
:107C4000FFFE45F826706368013363600120F8BDCC
:107C500037B5044624300D460190FFF739FC236800
:107C6000616803EB810083421A4609D01268AA4278
:107C700003F10403F7D101A8FFF72AFE00250EE067
:107C80002A462046FFF7BCFF05460028F3D063686C
:107C9000012B01D1FFF710FD01A8FFF719FE2846BF
:107CA00003B030BD8842F8B506460C46154614D9D7
:107CB000904213D2A2F110056C1AA1F110070444EE
:107CC000AF4218D01CB12946204600F08CFD284652
:107CD00000F099FD103D103CF2E70CD0AC420AD008
:107CE0001EB12146304600F07EFD204600F08BFD9F
:107CF00010341036F2E7F8BD70B50E1E05460BDDE8
:107D00003001FDF7BFFC044670B195E8060001EBB9
:107D10000212FFF7C7FF00E000242868FDF7BAFC55
:107D20002C60AE60012070BD70BD2DE9F04F0023C6
:107D300095B092464622036043608360C36003614E
:107D4000436102760291DAF80410089399420546DD
:107D500009930A9340F39D8008A8FFF7CDFF002800
:107D600040F097808EE021460BA800F03CFD0BA967
:107D70000FA8099E00F037FD09990A9B9942C0F2AD
:107D8000CE80013108A8FFF7B7FF002840F0C78078
:107D90000FA800F038FD0BA800F035FD1434A74201
:107DA000E1D100260B960C960D96B146099B9E429A
:107DB00080F2A8803301089AD3580693002B00F074
:107DC0009F8014237343CDF81C9001930BAC07A93B
:107DD00006A8FFF72CFB0746002800F0918014ABA3
:107DE000014603F8399D079A2046FFF78DFB9DF861
:107DF00017800090B8F1000F53D1BDF81C30ADF8DA
:107E000040304FF6FF730F97ADF84230CDF8448005
:107E1000CDF84880CDF84C806768A3689F424FDA60
:107E2000009BD4F800B06168142253430BEB0307A6
:107E300002FB01B207F1140039460393FFF794FEE9
:107E4000A7B1039B0F9A4BF80320BDF84030BB80CD
:107E5000BDF94230FB80C7F80890C7F80C90C7F80E
:107E6000109011A907F10800FFF767FE636801335E
:107E7000636011A8FFF7D2FCB8F1000F11D00BA876
:107E8000FFF7CCFC08A8FFF7DDFC284615B0BDE8DD
:107E9000F08FDAF80040DAF80430142707FB0347C4
:107EA0007DE72368009A142404FB0234069B1B78A8
:107EB00023BBDAF80030019A13441B7CE3801DE0F9
:107EC0000137002F0FDD142303FB07F00393FDF7A9
:107ED000D9FB834678B194E80600039B03FB0212AA
:107EE000FFF742FE00E0C3462068FDF7D3FBC4F86D
:107EF00000B0A76094E74FF00108BAE7083466E7DE
:107F0000013653E708A92846FFF717FE0BA905F12C
:107F10000C00FFF712FE9DF808302B76AFE7089BA8
:107F2000099A03EB061603EB0212314606F1100024
:107F3000FFF7B8FE1EB10FA9304600F054FC099BB4
:107F40000133099324E700007FB50446094B44F848
:107F5000043B05460E4601A81146FCF707FE01AAA0
:107F600031462046FFF7E1FE01A8FCF7FBFB28465F
:107F700004B070BD1C9D0D00F0B50F468BB02B49B1
:107F8000109C384616461D4601F0BEFD28BB002C4D
:107F900049D0294601A8FFF7DDFD2549242000F03E
:107FA00089FF0546B8B101A904A8FFF7D3FD04A9CC
:107FB00007A8FCF7DBFD07AA31462846FFF7C4FFF8
:107FC00007A8FCF7CFFB1B4B2B602C6204A8FCF727
:107FD000C9FB194B2B6001A81FE01849384601F076
:107FE00093FDF0B9FCB1294604A8FFF7B3FD104991
:107FF000242000F05FFF054670B104A907A8FCF734
:10800000B5FD07AA31462846FFF79EFF07A8FCF7F3
:10801000A9FB084B2B602C6204A8FCF7A3FB2846A5
:1080200002E0002000E020460BB0F0BD66A20D008B
:1080300020A40D00ECA20D00FCA10D006AA20D0011
:10804000014B024A1A607047DCE303207BA20D005B
:108050002DE9F047089DD0F8209004460E461746BB
:10806000984600F095FD814505D15A4800F073FA15
:10807000002840F0AC802B791B0705D56B69564A68
:10808000206A002100F031FBB8F1000F0DD05B2118
:108090002046FFF72EFA41462046FFF71CFA2368D8
:1080A0004E49DB680222204698472B79D90725D50F
:1080B000D5F808802F21404601F074FD08B100F189
:1080C000010841462046FFF706FA2B799A0709D5A1
:1080D0003A212046FFF70DFAEB68414A206A002159
:1080E00000F003FB2B7913F0040F236818BF3D4900
:1080F000DB6808BF3C490222204698472B795B0782
:1081000018D529690A46134613F8010B38B12028FF
:1081100001D1194601E0282801D01A46F3E7236867
:10812000521ADB682046984723683049DB680422EE
:108130002046984700213846FDF7F0F901462046D1
:10814000FFF7C9F923682849DB68022220469847CF
:108150001EB131462046FFF7BEF92B7913F0300FE0
:108160002DD023682249DB682046022298472B79CC
:10817000D8060BD523681F49DB680722204698479D
:10818000AB691D4A206A002100F0AFFA2B799906ED
:1081900011D5DA0605D523681249DB68022220468C
:1081A000984723681549DB6820460A229847E96901
:1081B0002046FFF790F95D212046FFF79AF92368E2
:1081C0000F49DB6820460222BDE8F0471847BDE8AA
:1081D000F08700BFB4E503207FA20D0086A20D004A
:1081E000499D0D0089A20D008EA20D008CA20D00EC
:1081F00091A20D0094A20D009CA20D009FA20D0063
:10820000AAA20D002DE9F04385B0D0F820800C9C87
:1082100006460F4691461D4600F0BAFC804505D142
:108220004A4800F098F9002840F08C80336A484AA8
:1082300001924FF0000801A803938DF80880FEF723
:10824000ECFF41464846FDF769F942498046012264
:1082500001A8FFF767F84146FFF72DF93FB13E4906
:10826000012201A8FFF75EF83946FFF724F93DB176
:108270003A49012201A8FFF755F82946FFF71BF9F3
:108280002379DF070ED5A5682F21284601F08AFC47
:1082900000B1451C3249012201A8FFF743F82946E5
:1082A000FFF709F923799D0707D52E49022201A876
:1082B000FFF738F8E168FEF7BDFF2379580716D5B8
:1082C00025692F463B4613F8012B3AB1202A01D1EC
:1082D0001D4601E0282A01D01F46F3E70222224969
:1082E00001A8FFF71FF87A1B2946FFF72AF8237920
:1082F000190707D51D49012201A8FFF713F8616985
:10830000FEF7AAFF2379DA0608D5042218490DEBF7
:108310000200FFF707F8A169FEF78CFF23799B069F
:1083200007D51449062201A8FEF7FCFFE169FFF713
:10833000C2F801A8FEF75BFF306A0F49036802220A
:10834000DB68984705B0BDE8F08300BFB4E50320C3
:10835000E4A10D0016A20D0029A20D00DEA20D0061
:10836000CAA10D00ADA20D00B0A20D003EA20D00ED
:10837000B3A20D00B8A20D00AAA20D000022114662
:108380004068FDF767B9002211464068FDF772B9F1
:1083900000224068FDF766B9002281F001014068C3
:1083A000FDF750B900231A4601214068FDF742B994
:1083B00000231A4619464068FDF734B900221146D9
:1083C0004068FDF727B9002211464068FDF712B951
:1083D000002202214068FDF715B900231A464068C3
:1083E000FDF700B938B5054688B104684CB1A368FB
:1083F0001BB103222146204698471021204600F059
:108400004EFD28461421BDE8384000F048BD38BD77
:1084100010B103685B681847704710B503680446DD
:10842000BBB15868FCF762FE78B923685A7C12B970
:108430005868FCF76BFE23685868FCF76FFE2068ED
:108440000023236028B1FFF7CDFF206808B1FFF7B4
:10845000C9FF204610BD38B50446D0F8C40108B1A4
:10846000FBF71FFED4F8C00108B1FCF78FFED4F86B
:10847000BC5135B12846FFF7D0FF0421284600F053
:108480000EFD206808B1FFF7C3FF204638BD00008D
:1084900010B5044B044640F8083BFFF7DCFF2046CC
:1084A00010BD00BF34A30D0038B50E4C0E4B236039
:1084B0000025022304F5E4706360A560C4F8C4518C
:1084C000C4F8C851FCF75AFE084BC4F8CC5184F8E4
:1084D000D05123602046064A0649BDE8384000F0E6
:1084E000D9BC00BFE0E3032068A30D0034A30D0056
:1084F00084E2032091840D0000231A464068FDF7B2
:1085000071B8002202214068FDF77CB800221146B4
:108510004068FDF76FB8002211464068FDF77AB851
:1085200000231A4619464068FDF77CB800231A4616
:1085300019464068FDF77EB8002281F001014068CD
:10854000FDF780B800224068FDF78CB80022114684
:108550004068FDF78FB8002211464068FDF77AB8F1
:108560002DE9F043002495B016460D460746FEF768
:108570004DFD214620220CA8009401F07CFA4023F6
:108580000C9321466B460CAA3046FCF7E7FE0446E6
:10859000002844D1024601216868FDF73BF802211A
:1085A000804622466868FDF735F8009E81462146E0
:1085B000002E34D0002932D17368022B02D00A2B4E
:1085C00009D02AE0B8F1000F27D07169384604318C
:1085D000FEF749FD20E0B9F1000F1ED074691122A9
:1085E00001A801F048FA06238DF8143001AD04F11A
:1085F00008031834186859682A4603C20833A3428E
:108600001546F7D101A906A807ADFEF70DFD0FCD60
:108610003C1D0FC42B6823700121F669C8E7009840
:10862000FCF794FE384615B0BDE8F083024B034AD0
:108630001A6000225A607047B4E5032068A30D0059
:10864000F8B506460D468F180024BD420CD033689D
:1086500015F8011B9B6830469847002801DB04444D
:10866000F3E7002C08BF04462046F8BD70B5054668
:108670000C46084649B101F06CFA2B6802462146C7
:108680002846DB68BDE87040184770BD03689B68EA
:10869000184738B50D210546FFF7F8FF0A210446B3
:1086A0002846FFF7F3FF204438BD30B58BB00B46AA
:1086B00000218DF82410012A98BF0A220DF123040D
:1086C000B3FBF2F505FB123303F0FF03092B94BF54
:1086D00030333733DBB2214604F801392B46002D05
:1086E000EED1FFF7C3FF0BB030BD0CB42DE9F04362
:1086F00087B000AF07F13804054654F8049B3C608E
:108700000E4623464A461421381DFCF7D3FF132892
:1087100005D8391D2846FFF7A9FF044613E000F1EC
:10872000080323F00703E846ADEB030D411C234685
:108730004A4668463C60FCF7BDFF69462846FFF79D
:1087400095FF0446C5461EB12846FFF7A2FF044424
:1087500020461C37BD46BDE8F04302B0704710B557
:108760000446FBF781FD204610BD10B50446FCF71A
:10877000B5FE844208D01CB1BDE81040FCF79EBE97
:10878000BDE81040FCF7A2BE10BD70B505460E4610
:108790001446FCF7A3FE50B144EA062040EA054027
:1087A000FCF784FEE720BDE87040FCF79FBE70BD7B
:1087B0000348044A04490023836000F06BBB00BFF8
:1087C000BCE5032084E203205F870D0010B504465A
:1087D00001700846FCF7CAFD00236360204610BD07
:1087E0000078FCF7CBBD0023036043608360037314
:1087F00010B50C6804604C6844608C6884600B6041
:108800004B608B6010BD10B504460068FCF742FF5A
:10881000204610BD10B50446006808B1FCF73AFFC9
:1088200000232360A360636010BD38B504460D4685
:1088300000680131FCF736FF10B184E82100012007
:1088400038BD10B50368044613B143688B4207D2A4
:108850002046FFF7EAFF20B1A3680BB92268137026
:10886000012010BD70B50E46114604461546FFF7AF
:10887000E8FF18B92046FFF7CDFF09E02A46314648
:10888000A560206801F0D1F82268A3680021D154C6
:10889000204670BD38B50023044603604360836002
:1088A00003730D4639B1084601F053F929460246D3
:1088B0002046FFF7D7FF204638BD884210B50B464B
:1088C000044607D0096819B19A68FFF7CBFF01E0A9
:1088D000FFF7A0FF204610BD10B50023044603603B
:1088E000436083600373FFF7E8FF204610BD38B58F
:1088F00005460C4641B1084601F02BF921460246D7
:108900002846FFF7AFFF01E0FFF784FF284638BD98
:108910000EB4FFB509AC054654F8047B0194234618
:108920003A46052102A8FCF7C5FE0C490646284632
:10893000FFF7B0FF31462846FFF783FF286830B1C4
:1089400023463A46711C0194FCF7B4FEA860284601
:1089500004B0BDE8F04003B0704700BFACA20D000A
:10896000FCF734BC10B5094C00204FF6FF732060B3
:10897000A080A07120816381FCF7E0FD2046044ABD
:108980000449BDE8104000F085BA00BFCCE50320E3
:1089900084E2032095410D00024B1A68024B1A60D5
:1089A000704700BF18E20320D8E5032070474174E8
:1089B000704708B5007CFCF729FD20EAE07008BD8F
:1089C00008B5007CFCF7FAFC20EAE07008BD08B5A9
:1089D000007CFCF703FD30EA200028BF4FF0FF3099
:1089E00008BD08B5007CFCF7F1FC30EA200028BF88
:1089F0004FF0FF3008BD007CFCF7F8BC10B5142127
:108A0000044600F04CFA204610BD70B5457C044683
:108A10000E4625B9007CFCF7F9FC002805DD31463F
:108A2000207CBDE87040FCF7C1BC284670BD00004A
:108A300010B5044608461146002262604FF47A726F
:108A4000A260054A22600122207462741A46FCF773
:108A50009DFC204610BD00BFC8A30D000023007C74
:108A6000FCF7DCBC0022FFF7F9BF007CFCF796BCEA
:108A7000007CFCF7C3BC000038B50C4D296811F030
:108A8000010411D12846FBF719FB68B1084A094BCC
:108A900009482146FFF7CCFF2846FBF714FB074A9D
:108AA0000749054800F0F6F9034838BD74E603208D
:108AB00078E60320F0E50320DCE5032084E20320D0
:108AC000AD890D0041747047704708B50021007CE6
:108AD000FCF7D4FC30EA200028BF4FF0FF3008BD7F
:108AE00008B50121007CFCF7C9FC30EA200028BF52
:108AF0004FF0FF3008BD08B5007CFCF7B7FC20EA5A
:108B0000E07008BD08B5007CFCF7A8FC20EAE07026
:108B100008BD007CFCF7C2BC10B51421044600F06F
:108B2000BEF9204610BD38B50446007C0D46FCF762
:108B30009DFC002801DC607C28B12946207CFCF7E4
:108B4000A5FC20EAE07038BD10B504460023636040
:108B50004FF47A73A360054B236001230846217408
:108B600063741146FCF762FC204610BDF8A30D00AB
:108B70000022007CFCF762BC007CFCF767BC10B5EF
:108B800014220446002100F076FF204610BD0000AC
:108B900030B50E4D87B001A8FFF7F1FF296811F03D
:108BA000010410D12846FBF789FA60B101AA2146D9
:108BB0000748FFF7C9FF2846FBF785FA054A06492B
:108BC000034800F067F9024807B030BDFCE6032017
:108BD00000E7032084E20320C98A0D0008B50F4B8B
:108BE00033B1FFF7D5FF03681B69984700280DDCF8
:108BF0000B4B33B1FFF740FF03681B699847002810
:108C000007DC084B43B1AFF3008008BDAFF3008031
:108C1000EEE7AFF30080F4E708BD00BF00000000FE
:108C2000000000000000000008B5FFF7D7FFFCF7C8
:108C3000E5FA014B186008BD28E703200248034A03
:108C40000349121A00F0F1BE00F4032004F40320DB
:108C5000C0A50D0007B5002300931A466FF07701F9
:108C6000FCF796FC03B05DF804FB000007B54388F1
:108C70000A2B08D0502B09D1094B1B683BB103B01C
:108C80005DF804EB1847FFF7E5FF06E000230093CB
:108C90001A466FF07701FCF77BFC03B05DF804FB2C
:108CA00014E7032038B5104C104D2368AB42104B2D
:108CB0000CBF012200221A7002D0FFF7BFFF25600F
:108CC000FCF78CFA044600F0DFFE0A4B13B1204695
:108CD000AFF3008000210748FCF77CFC0021064828
:108CE000BDE83840FCF74ABC00F403201E1C279A5C
:108CF00018E70320000000006D8C0D0070B5184EC1
:108D0000316811F0010504460AD13046FBF7D6F967
:108D100030B129461348FFF759FD3046FBF7D3F928
:108D20001048FFF75DFD28B1A4F10B03022B01D819
:108D3000002070BD00F088F8FEF700F908B1012CA2
:108D4000F6D9FFF799FEFFF793FE18B1A4F10903D6
:108D5000012BEDD91E2C8CBF0020012070BD00BF5F
:108D60001CE7032020E703201E2838B504460D46E3
:108D70000AD8FF2908D0FFF7C1FF28B129462046AD
:108D8000BDE83840FCF772BA38BD38B504460D4628
:108D9000FCF774FAFF2810D0062804D84D2323FAD4
:108DA00000F0C30709D42046FFF7A8FF28B12946E1
:108DB0002046BDE83840FCF769BA38BD0D2810B52B
:108DC00004469CBF0E34A4B22046FFF797FF50B173
:108DD00003212046FCF742FA032804D12046BDE8CF
:108DE0001040FCF76BBA002010BD000010B5074C16
:108DF0002368DB0708D42046FBF760F920B1FCF7B5
:108E000005FA2046FBF75FF9014810BD2CE7032067
:108E100030E7032070B5044614252A46094E002188
:108E200000F029FE258020253146A56025612846D1
:108E300000F04FF831466060284600F04AF8E060E4
:108E4000204670BD20A40D0030B50E4D296811F0EC
:108E5000010487B013D12846FBF730F978B101A897
:108E6000FFF7D8FF01AA21460748FEF755F8284624
:108E7000FBF729F9054A0649034800F00BF80248B8
:108E800007B030BD34E7032038E7032084E2032035
:108E9000C16E0D000B460146184600F0A9BDFBF758
:108EA000FEB80000024B1868BFF35F8F704700BF29
:108EB0004CE7032010B5002814BF044601242046C7
:108EC000FCF7E0FB20B9FFF7EDFF08B18047F6E7BC
:108ED00010BDFFF7EFBF08B5FCF7F4FB244B1A6891
:108EE000D0075CBF01221A60224B1A68D1075CBF11
:108EF00001221A60204B1A68D2075CBF01221A6057
:108F00001E4B1A68D0075CBF01221A601C4B1A68FE
:108F1000D1075CBF01221A601A4B1A68D2075CBFE6
:108F200001221A60184B1A68D0075CBF01221A6030
:108F3000164B1A68D1075CBF01221A60144B1A68DD
:108F4000D2075CBF01221A60124B1A68D0075CBFBF
:108F500001221A60104B1A68D1075CBF01221A6007
:108F60000E4B1A68D2075CBF01221A60704700BF1F
:108F70007CE7032078E7032074E7032070E70320F1
:108F80006CE7032068E7032064E7032060E7032021
:108F90005CE7032058E7032054E7032050E7032051
:108FA000184B1A68D1075CBF01221A60164B1A6869
:108FB000D2075CBF01221A60144B1A68D0075CBF4D
:108FC00001221A60124B1A68D1075CBF01221A6095
:108FD000104B1A68D2075CBF01221A600E4B1A6848
:108FE000D0075CBF01221A600C4B1A68D1075CBF26
:108FF00001221A600A4B1A68D2075CBF01221A606C
:10900000704700BF9CE7032098E7032094E7032004
:1090100090E703208CE7032088E7032084E7032000
:1090200080E70320184B1A68D1075CBF01221A6041
:10903000164B1A68D2075CBF01221A60144B1A68DB
:10904000D0075CBF01221A60124B1A68D1075CBFBF
:1090500001221A60104B1A68D2075CBF01221A6005
:109060000E4B1A68D0075CBF01221A600C4B1A68BD
:10907000D1075CBF01221A600A4B1A68D2075CBF95
:1090800001221A60704700BFBCE70320B8E7032045
:10909000B4E70320B0E70320ACE70320A8E70320F0
:1090A000A4E70320A0E70320244B1A68D0075CBF85
:1090B00001221A60224B1A68D1075CBF01221A6094
:1090C000204B1A68D2075CBF01221A601E4B1A6837
:1090D000D0075CBF01221A601C4B1A68D1075CBF25
:1090E00001221A601A4B1A68D2075CBF01221A606B
:1090F000184B1A68D0075CBF01221A60164B1A6819
:10910000D1075CBF01221A60144B1A68D2075CBFFA
:1091100001221A60124B1A68D0075CBF01221A6044
:10912000104B1A68D1075CBF01221A600E4B1A68F7
:10913000D2075CBF01221A60704700BFECE7032032
:10914000E8E70320E4E70320E0E70320DCE703206F
:10915000D8E70320D4E70320D0E70320CCE703209F
:10916000C8E70320C4E70320C0E7032081F00041E3
:1091700002E000BF83F0004330B54FEA41044FEAFC
:10918000430594EA050F08BF90EA020F1FBF54EA97
:10919000000C55EA020C7FEA645C7FEA655C00F033
:1091A000E2804FEA5454D4EB5555B8BF6D420CDD04
:1091B0002C4480EA020281EA030382EA000083EA87
:1091C000010180EA020281EA0303362D88BF30BD27
:1091D00011F0004F4FEA01314FF4801C4CEA11317D
:1091E00002D0404261EB410113F0004F4FEA0333DC
:1091F0004CEA133302D0524263EB430394EA050F67
:1092000000F0A780A4F10104D5F1200E0DDB02FAD5
:109210000EFC22FA05F2801841F1000103FA0EF269
:10922000801843FA05F359410EE0A5F120050EF12F
:10923000200E012A03FA0EFC28BF4CF0020C43FA60
:1092400005F3C01851EBE37101F0004507D54FF06D
:10925000000EDCF1000C7EEB00006EEB0101B1F5BD
:10926000801F1BD3B1F5001F0CD349085FEA300003
:109270004FEA3C0C04F101044FEA445212F5800F0E
:1092800080F09A80BCF1004F08BF5FEA500C50F1AB
:10929000000041EB045141EA050130BD5FEA4C0C8E
:1092A000404141EB010111F4801FA4F10104E9D117
:1092B00091F0000F04BF01460020B1FA81F308BF0E
:1092C0002033A3F10B03B3F120020CDA0C3208DDDA
:1092D00002F1140CC2F10C0201FA0CF021FA02F1B5
:1092E0000CE002F11402D8BFC2F1200C01FA02F125
:1092F00020FA0CFCDCBF41EA0C019040E41AA2BF4A
:1093000001EB0451294330BD6FEA04041F3C1CDA11
:109310000C340EDC04F11404C4F1200220FA04F031
:1093200001FA02F340EA030021FA04F345EA0301DB
:1093300030BDC4F10C04C4F1200220FA02F001FA9D
:1093400004F340EA0300294630BD21FA04F029461F
:1093500030BD94F0000F83F4801306BF81F48011B8
:109360000134013D4EE77FEA645C18BF7FEA655C2B
:1093700029D094EA050F08BF90EA020F05D054EAFD
:10938000000C04BF1946104630BD91EA030F1EBF02
:109390000021002030BD5FEA545C05D14000494106
:1093A00028BF41F0004130BD14F580043CBF01F5F9
:1093B000801130BD01F0004545F0FE4141F47001DF
:1093C0004FF0000030BD7FEA645C1ABF19461046BA
:1093D0007FEA655C1CBF0B46024650EA013406BFBB
:1093E00052EA033591EA030F41F4002130BD00BF7A
:1093F00090F0000F04BF0021704730B54FF4806437
:1094000004F132044FF000054FF0000150E700BFB7
:1094100090F0000F04BF0021704730B54FF4806416
:1094200004F1320410F0004548BF40424FF0000103
:109430003EE700BF42004FEAE2014FEA31014FEA46
:1094400002701FBF12F07F4393F07F4F81F0605195
:10945000704792F0000F14BF93F07F4F704730B504
:109460004FF4607401F0004521F0004120E700BF97
:1094700050EA010208BF704730B54FF000050AE01E
:1094800050EA010208BF704730B511F0004502D51F
:10949000404261EB41014FF4806404F132045FEA21
:1094A000915C3FF4DCAE4FF003025FEADC0C18BFC6
:1094B00003325FEADC0C18BF033202EBDC02C2F1BC
:1094C000200300FA03FC20FA02F001FA03FE40EA4E
:1094D0000E0021FA02F11444C1E600BF70B54FF04E
:1094E000FF0C4CF4E06C1CEA11541DBF1CEA135530
:1094F00094EA0C0F95EA0C0F00F0DEF82C4481EA98
:10950000030621EA4C5123EA4C5350EA013518BFB7
:1095100052EA033541F4801143F4801338D0A0FBA4
:1095200002CE4FF00005E1FB02E506F00042E0FB51
:1095300003E54FF00006E1FB03569CF0000F18BF57
:109540004EF0010EA4F1FF04B6F5007F64F54074FF
:1095500004D25FEA4E0E6D4146EB060642EAC62192
:1095600041EA55514FEAC52040EA5E504FEACE2EFF
:10957000B4F1FD0C88BFBCF5E06F1ED8BEF1004F02
:1095800008BF5FEA500E50F1000041EB045170BD7E
:1095900006F0004646EA010140EA020081EA0301C2
:1095A000B4EB5C04C2BFD4EB0C0541EA045170BDBE
:1095B00041F480114FF0000E013C00F3AB8014F138
:1095C000360FDEBF002001F0004170BDC4F1000481
:1095D000203C35DA0C341BDC04F11404C4F1200502
:1095E00000FA05F320FA04F001FA05F240EA02005D
:1095F00001F0004221F0004110EBD37021FA04F693
:1096000042EB06015EEA430E08BF20EAD37070BD4C
:10961000C4F10C04C4F1200500FA04F320FA05F0AB
:1096200001FA04F240EA020001F0004110EBD370AD
:1096300041F100015EEA430E08BF20EAD37070BD1D
:10964000C4F1200500FA05F24EEA020E20FA04F3F6
:1096500001FA05F243EA020321FA04F001F00041A5
:1096600021FA04F220EA020000EBD3705EEA430E16
:1096700008BF20EAD37070BD94F0000F0FD101F045
:109680000046400041EB010111F4801F08BF013C7E
:10969000F7D041EA060195F0000F18BF704703F0BC
:1096A0000046520043EB030313F4801F08BF013D43
:1096B000F7D043EA0603704794EA0C0F0CEA1355FF
:1096C00018BF95EA0C0F0CD050EA410618BF52EAB9
:1096D0004306D1D181EA030101F000414FF00000BF
:1096E00070BD50EA410606BF1046194652EA4306CD
:1096F00019D094EA0C0F02D150EA013613D195EA41
:109700000C0F05D152EA03361CBF104619460AD188
:1097100081EA030101F0004141F0FE4141F4700192
:109720004FF0000070BD41F0FE4141F4780170BD82
:1097300070B54FF0FF0C4CF4E06C1CEA11541DBFE7
:109740001CEA135594EA0C0F95EA0C0F00F0A7F8E9
:10975000A4EB050481EA030E52EA03354FEA013116
:1097600000F088804FEA03334FF0805545EA131329
:1097700043EA12634FEA022245EA111545EA1065F1
:109780004FEA00260EF000419D4208BF964244F188
:10979000FD0404F5407402D25B084FEA3202B61AA7
:1097A00065EB03055B084FEA32024FF480104FF47B
:1097B000002CB6EB020E75EB030E22BFB61A7546EF
:1097C00040EA0C005B084FEA3202B6EB020E75EB82
:1097D000030E22BFB61A754640EA5C005B084FEAEA
:1097E0003202B6EB020E75EB030E22BFB61A7546B7
:1097F00040EA9C005B084FEA3202B6EB020E75EBC2
:10980000030E22BFB61A754640EADC0055EA060E82
:1098100018D04FEA051545EA16754FEA06164FEAC5
:10982000C30343EA52734FEAC2025FEA1C1CC0D171
:1098300011F4801F0BD141EA00014FF000004FF0FE
:10984000004CB6E711F4801F04BF01430020B4F1BF
:10985000FD0C88BFBCF5E06F3FF6AFAEB5EB030C77
:1098600004BFB6EB020C5FEA500C50F1000041EB74
:10987000045170BD0EF0004E4EEA113114EB5C0441
:10988000C2BFD4EB0C0541EA045170BD41F4801114
:109890004FF0000E013C90E645EA060E8DE60CEA1C
:1098A000135594EA0C0F08BF95EA0C0F3FF43BAF39
:1098B00094EA0C0F0AD150EA01347FF434AF95EAF0
:1098C0000C0F7FF425AF104619462CE795EA0C0FD4
:1098D00006D152EA03353FF4FDAE1046194622E7A1
:1098E00050EA410618BF52EA43067FF4C5AE50EA7B
:1098F00041047FF40DAF52EA43057FF4EBAE12E76B
:109900004FEA410212F5001215D211D56FF47873A7
:10991000B3EB625212D94FEAC12343F0004343EA4A
:10992000505311F0004F23FA02F018BF4042704725
:109930004FF00000704750EA013005D111F00040AF
:1099400008BF6FF0004070474FF00000704700BF45
:109950004FEA4102B2F1E04324BFB3F5001CDCF151
:10996000FE5C0DD901F0004C4FEAC0024CEA507089
:10997000B2F1004F40EB830008BF20F001007047B8
:1099800011F0804F21D113F13872BCBF01F00040BB
:10999000704741F480114FEA5252C2F11802C2F1ED
:1099A000200C10FA0CF320FA02F018BF40F001006E
:1099B0004FEAC1234FEAD32303FA0CFC40EA0C0020
:1099C00023FA02F34FEA4303CCE77FEA625307D15D
:1099D00050EA01331EBF4FF0FE4040F44000704794
:1099E00001F0004040F0FE4040F40000704700BF2E
:1099F00010B5054C13462CB10A4601460220AFF3C0
:109A0000008010BD204610BD0000000010B50139D7
:109A10000244904207D010F8013B11F8014FA342D5
:109A2000F7D0181B10BD002010BD10B5431E0A440E
:109A3000914204D011F8014B03F8014FF8E710BD33
:109A4000884210B501EB020301D8421E0BE0984298
:109A5000FBD28118D21AD34204D013F8014D01F879
:109A6000014DF8E710BD994204D011F8014B02F8FE
:109A7000014FF8E710BD02440346934202D003F8B9
:109A8000011BFAE77047000038B5124B1C68A36B46
:109A90000546D3B91820FBF7F5FD43F20E33A0635A
:109AA00003804AF6CD33438041F2342383804EF263
:109AB0006D63C3804DF6EC630381052343810B2363
:109AC000838101220023C0E90423A36B00221D61CE
:109AD0005A6138BD80E20320C9B2034610F8012B59
